{
  "contractName": "TicTacToe",
  "abi": [
    {
      "constant": true,
      "inputs": [],
      "name": "owner",
      "outputs": [
        {
          "name": "",
          "type": "address"
        }
      ],
      "payable": false,
      "stateMutability": "view",
      "type": "function"
    },
    {
      "inputs": [],
      "payable": false,
      "stateMutability": "nonpayable",
      "type": "constructor"
    },
    {
      "constant": false,
      "inputs": [],
      "name": "enter",
      "outputs": [
        {
          "name": "",
          "type": "int256"
        }
      ],
      "payable": false,
      "stateMutability": "nonpayable",
      "type": "function"
    }
  ],
  "bytecode": "0x608060405234801561001057600080fd5b50336000806101000a81548173ffffffffffffffffffffffffffffffffffffffff021916908373ffffffffffffffffffffffffffffffffffffffff1602179055507fffffffffffffffffffffffffffffffffffffffffffffffffffffffffffffffff60038190555061034c806100876000396000f30060806040526004361061004c576000357c0100000000000000000000000000000000000000000000000000000000900463ffffffff1680638da5cb5b14610051578063e97dcb62146100a8575b600080fd5b34801561005d57600080fd5b506100666100d3565b604051808273ffffffffffffffffffffffffffffffffffffffff1673ffffffffffffffffffffffffffffffffffffffff16815260200191505060405180910390f35b3480156100b457600080fd5b506100bd6100f8565b6040518082815260200191505060405180910390f35b6000809054906101000a900473ffffffffffffffffffffffffffffffffffffffff1681565b60007fffffffffffffffffffffffffffffffffffffffffffffffffffffffffffffffff600260003373ffffffffffffffffffffffffffffffffffffffff1673ffffffffffffffffffffffffffffffffffffffff168152602001908152602001600020541415151561016857600080fd5b600060016000600354815260200190815260200160002060000160009054906101000a900473ffffffffffffffffffffffffffffffffffffffff1673ffffffffffffffffffffffffffffffffffffffff161415610266573360016000600354815260200190815260200160002060000160006101000a81548173ffffffffffffffffffffffffffffffffffffffff021916908373ffffffffffffffffffffffffffffffffffffffff160217905550600354600260003373ffffffffffffffffffffffffffffffffffffffff1673ffffffffffffffffffffffffffffffffffffffff16815260200190815260200160002081905550600354905061031d565b3360016000600354815260200190815260200160002060010160006101000a81548173ffffffffffffffffffffffffffffffffffffffff021916908373ffffffffffffffffffffffffffffffffffffffff160217905550600354600260003373ffffffffffffffffffffffffffffffffffffffff1673ffffffffffffffffffffffffffffffffffffffff16815260200190815260200160002081905550600160036000828254019250508190555060016003540390505b905600a165627a7a7230582029623e79ac9eb17e6c2011dbc6e6c54d0e0621071ef753a6b5030287753428640029",
  "source": "pragma solidity ^0.4.17;\n\ncontract TicTacToe {\n    struct Game {\n        address first;\n        address second;\n        byte[9] deck;\n        bool finished;\n    }\n    \n    address public owner;\n    mapping(int => Game) games;\n    mapping(address => int) participations;\n    \n    int gameNumber;\n\n    constructor() public {\n        owner = msg.sender;\n        \n        gameNumber = -1;\n    }\n    \n    modifier restricted() {\n        if (msg.sender == owner) _;\n    }\n    \n    function enter() public returns (int) {\n        require(participations[msg.sender] != -1);\n        \n        if(games[gameNumber].first == 0x0) {\n            games[gameNumber].first = msg.sender;\n            participations[msg.sender] = gameNumber;\n            return gameNumber;\n        } else {\n            games[gameNumber].second = msg.sender;\n            participations[msg.sender] = gameNumber;\n            gameNumber += 1;\n            \n            return gameNumber - 1;\n        }\n    }\n}",
  "sourcePath": "/home/alexander/workspace/smart_contracts/tic-tac-toe/contracts/TicTacToe.sol",
  "compiler": {
    "name": "solc",
    "version": "0.4.24+commit.e67f0147.Emscripten.clang"
  },
  "schemaVersion": "2.0.1",
  "updatedAt": "2018-07-26T16:27:14.710Z"
}